:020000040800F2
:10000000D048002045010008B50E0008210A00086C
:10001000B10E0008D3060008ED160008000000002D
:10002000000000000000000000000000A10F000818
:10003000D7060008000000005D0F000899100008B6
:100040005F0100085F0100085F0100085F01000810
:100050005F0100085F0100085F0100085F01000800
:100060005F0100085F0100085F0100085F010008F0
:100070005F0100085F0100085F0100085F010008E0
:100080005F0100085F0100085F0100085F010008D0
:100090005F0100085F0100085F0100085F010008C0
:1000A0005F0100085F0100085F0100085F010008B0
:1000B0005F0100085F0100085F0100085F010008A0
:1000C0005F0100085F0100085F0100085F01000890
:1000D0005F0100085F0100085F0100085F01000880
:1000E0005F0100085F0100085F0100085F01000870
:1000F0005F0100085F010008DD1300085F010008D0
:100100005F0100085F0100085F0100085F0100084F
:100110005F0100085F0100085F0100085F0100083F
:100120005F0100085F0100085F0100085F0100082F
:10013000DFF80CD000F07CFA00480047A523000847
:10014000D04800200648804706480047FEE7FEE703
:10015000FEE7FEE7FEE7FEE7FEE7FEE7FEE7FEE777
:100160003D11000831010008421C10F8011B002954
:10017000FBD1801A70472DE9FE4F81EA030404F099
:10018000004421F0004100944FF0000B23F00043A5
:1001900050EA01045ED052EA03045BD0C3F30A5470
:1001A000C1F30A552C44A4F2F3340194A0FB025489
:1001B000C1F3130141F48011C3F3130343F480131B
:1001C00001FB024400FB034E840A970A44EA81546F
:1001D00047EA8357A4FB076802958D0A05FB07854C
:1001E0004FEA932C04FB0C542705029D4FEA065856
:1001F00047EA1637B5EB08056EEB070C870E920E33
:1002000047EA811742EA8312A7FB0201B6EB0B0112
:1002100064EB00042B0D43EA0C335E1844EB1C50D6
:10022000DA465146E7FB0201C5F313044FEA0B33EC
:1002300043EA14534FEA0432019C43EA0603A4F153
:100240000C040294009CCDE900B400F05CF803B00B
:10025000BDE8F08F00200146F9E730B50B460146B6
:1002600000202022012409E021FA02F59D4205D355
:1002700003FA02F5491B04FA02F52844151EA2F1FF
:100280000102F1DC30BD2DE9F05F05460020924609
:100290009B4688460646814640241BE02846414648
:1002A0004746224600F0E5F953465A46C01A9141A6
:1002B00010D311461846224600F0CCF92D1A67EBF0
:1002C00001084F4622460120002100F0C3F917EB38
:1002D00000094E41201EA4F10104DFDC48463146EE
:1002E0002A464346BDE8F09F10B5141E73F1000482
:1002F00008DA401C41F1000192185B411A4301D118
:1003000020F0010010BD2DE9F04D92469B4611B141
:10031000B1FA81F202E0B0FA80F22032904600F0A9
:1003200099F904460F4640EA0A0041EA0B01534698
:100330005A46084313D0114653EA010019D0C8F1B8
:100340004002504600F095F905460E465046594683
:10035000424600F07FF9084305D0012004E0204622
:100360003946BDE8F08D0020054346EAE0762C438F
:1003700037430A986305E40AA0EB08000022FD0A4F
:1003800044EA47540A3002D500200146E9E7010556
:1003900010196941DDE9084500196941BDE8F04DD2
:1003A000A2E72DE9FE4F804681EA0300C00F0C460C
:1003B000009021F0004123F00045B8EB0200A94174
:1003C00005D24046214690461C460B46024623F085
:1003D0000040104347D0270DC7F30A00C3F30A516A
:1003E0000290401A019040286BDAC3F3130040F4E6
:1003F000801B0098924620B10023D2EB030A63EBE6
:100400000B0B01985946C0F14002504600F022F90A
:1004100006460D4650465946019A00F03AF910EB4F
:1004200008006141002487EA115284EAE7731A4305
:1004300040D0009A62B3019A012A4FEA075215DCB4
:10044000001B61EB02014FF0004202EA0752CDE9C6
:100450000042001C41F5801132462B46FFF753FF46
:1004600003B0BDE8F08F40462146F9E7001B61EB81
:100470000201001C41F5801300185B412018A2F511
:10048000001747EB030140EAD570B6196D4111E042
:100490006D084FEA360645EAC0754FEA0752001B61
:1004A00061EB0201001C41F5801149084FEA300060
:1004B0000019514132462B4603B0BDE8F04FFFF71B
:1004C00013BF0098012240000023D0EB020263EB2F
:1004D000E073009821464FEAE074B8EB000061EB4E
:1004E0000401E9E783F000435BE781F0004158E74E
:1004F0002DE9F04D81EA030404F0004B21F00045A2
:1005000014464FF0000A23F0004150EA050220D0C3
:1005100054EA01021DD0C5F30A570246C5F313037E
:10052000C1F31300C1F30A5640F4801543F480135D
:10053000A7EB0608101BD64608F2FD3873EB050042
:1005400002D308F1010801E092185B41B8F1000FF5
:1005500003DA00200146BDE8F08D00204FF4801141
:10056000064684460EE0171B73EB050705D3121BE6
:1005700063EB050306434CEA010C49084FEA3000DF
:1005800092185B4150EA0107EDD152EA030012D004
:1005900082EA040083EA0501084305D0101BAB4141
:1005A00006D20122002306E000224FF0004302E0C1
:1005B0006FF0010253101AEB06004CEB085110EBE0
:1005C0000A0041EB0B01BDE8F04DFFF78DBEC1F312
:1005D0000A52C1F3130140F2FF3341F480119A42F1
:1005E00002DA00200146704740F233439A42A2F2F9
:1005F000334202DC524200F03CB800F02BB800005D
:1006000030B5041E71F1000404DB4FF00044404299
:1006100064EB0101141E73F1000405DB1C464FF06E
:100620000043524263EB0403994208BF904230BD3D
:10063000064C074D06E0E06840F0010394E807002F
:1006400098471034AC42F6D3FFF776FD50480008C7
:1006500070480008202A04DB203A00FA02F100204A
:1006600070479140C2F1200320FA03F319439040F0
:100670007047202A04DB203A21FA02F0002170475B
:1006800021FA02F3D040C2F12002914008431946FA
:100690007047202A06DBCB17203A41FA02F043EAE2
:1006A000E07306E041FA02F3D040C2F1200291402B
:1006B00008431946704710B500F044FA01F09EFC5B
:1006C00001F016F800F0DEFF00F0F5FB00F044FB4F
:1006D00010BD00BFFEE770472DE9F84F06460F46F4
:1006E00091464FF0000A2C482C49097810F831B097
:1006F0002A49097800EBC100407800902648274934
:10070000097800EBC10040682349244A127801EBC4
:10071000C201897809FB0108002537E0002426E0A2
:1007200098F8000000FA0AF000F0800038B17A1959
:10073000D1B23219D0B2012200F03CFB06E07A19A6
:10074000D1B23219D0B2002200F034FB601CC4B226
:100750000AF1010000F0FF0AE11704EB5171C91022
:10076000A4EBC10119B908F101084FF0000A5C457A
:10077000D6DBE11704EB5171C910A4EBC10119B12B
:1007800008F101084FF0000A681CC5B200988542C4
:10079000C4DBBDE8F88F0000400000203C000020D2
:1007A0002DE9F04106460F4615462846FFF7DCFCCA
:1007B00000F0FF0800240FE0295D2039CAB2084983
:1007C000084B1B7811F8331001FB0461C8B239469D
:1007D000FFF782FF601CC4B24445EDDBBDE8F08149
:1007E000400000203C00002051B18200A2F1C04234
:1007F000126842F001038200A2F1C042136009E0D6
:100800008200A2F1C0421268034B1A408300A3F198
:10081000C0431A6070470000FEFF0F00D0E90112CC
:100820001143C2681143026911434269114382694D
:100830001143C2691143026A1143426A1143826A39
:100840001143C26A1143026B114302689200A2F184
:10085000C0421160816808290BD101688900A1F1AB
:10086000C041096841F0400201688900A1F1C0411E
:100870000A60416B0968426B526841EA0211426B9F
:10088000926841EA0221426B928941EA0241426B3D
:10089000128A41EA0251426B127D41EA0261426BC7
:1008A000926911430268521C9200A2F1C042116089
:1008B000C16AB1F5804F1BD1816B0968826B5268A8
:1008C00041EA0211826B926841EA0221826B128A2C
:1008D00041EA0251826B127D41EA0261826B9269A8
:1008E000114302689200A2F1C042C2F8041107E06D
:1008F0006FF0704201688900A1F1C041C1F8042184
:1009000070472DE9F0410246002500260020002313
:100910000024002791F803C00CF00F0591F803C0E4
:100920000CF0100CBCF1000F03D091F802C04CEA9F
:10093000050591F800C0BCF1000F31D0146800200B
:100940002BE04FF0010C0CFA00F3B1F800C00CEAF8
:1009500003069E4220D183004FF00F0C0CFA03F7E0
:10096000BC4305FA03FC4CEA040491F803C0BCF153
:10097000280F06D14FF0010C0CFA00FCC2F814C08D
:100980000AE091F803C0BCF1480F05D14FF0010C0B
:100990000CFA00FCC2F810C0401C0828D1D3146027
:1009A000B1F800C0BCF1FF0F34DD546800202EE028
:1009B00000F1080C4FF0010808FA0CF3B1F800C080
:1009C0000CEA03069E4221D183004FF00F0C0CFA73
:1009D00003F7BC4305FA03FC4CEA040491F803C096
:1009E000BCF1280F05D100F1080C08FA0CF8C2F888
:1009F000148091F803C0BCF1480F07D100F1080C36
:100A00004FF0010808FA0CF8C2F81080401C0828C2
:100A1000CED35460BDE8F0814161704701617047F9
:100A200000BFFEE710B54FF480514448FFF7F4FFD4
:100A300044F6206001F012FB4FF480513F48FFF76D
:100A4000EDFF3F4801F00AFBE22000F07BF941F2A4
:100A5000883001F003FB252000F074F92B2000F012
:100A600071F9C42000F06EF9A32000F06BF9D120D9
:100A700000F068F9D62000F065F9EB2000F062F98B
:100A8000812000F05FF98C2000F05CF9F12000F08B
:100A900059F99F2000F056F9AD2000F053F9E920F4
:100AA00000F050F92B2000F04DF9242000F04AF915
:100AB000812000F047F9C02000F044F9C52000F083
:100AC00041F9A32000F03EF9D12000F03BF9D520F8
:100AD00000F038F9842000F035F9C82000F032F930
:100AE000102000F02FF9DA2000F02CF9F42000F0AB
:100AF00029F9252000F026F9F62000F023F95A20E4
:100B000000F020F9F52000F01DF9002000F01AF99E
:100B1000F72000F017F99F2000F014F9F82000F0FA
:100B200011F9892000F00EF9F12000F00BF99F2057
:100B300000F008F9AD2000F005F910BD000C0140EF
:100B400020A1070008B501217D2000F019FA04203A
:100B5000ADF8000003208DF8020010208DF803008E
:100B600069462E48FFF7CDFE4FF42060ADF8000037
:100B700069462B48FFF7C5FE3020ADF800006946F6
:100B80002848FFF7BEFE4FF47840ADF800006946F4
:100B90002548FFF7B6FE0120ADF8000002208DF8D1
:100BA000020004208DF8030069461D48FFF7A9FEE6
:100BB0000F20ADF8000069461A48FFF7A2FE4FF477
:100BC000F850ADF8000069461848FFF79AFE3C203F
:100BD000ADF8000069461448FFF793FE0120ADF818
:100BE000000000208DF8030069460C48FFF789FEDD
:100BF0000220ADF8000069460948FFF782FE4FF475
:100C00005070ADF8000003208DF8020004208DF82C
:100C1000030069460348FFF774FE08BD0008014061
:100C2000000C014000100140001801400014014078
:100C300008B50121080200F093F901217D2000F0A0
:100C40009FF94CF23300ADF8000003208DF802004C
:100C500018208DF8030069461948FFF752FE4FF43B
:100C60007860ADF8000069461648FFF74AFE4FF479
:100C70000050ADF8000069461148FFF742FE8020A1
:100C8000ADF8000069460E48FFF73BFE4FF4805078
:100C9000ADF8000010208DF8030069460A48FFF700
:100CA00030FE0220ADF8000010208DF803006946E8
:100CB0000648FFF726FE02210448FFF7AFFE08BDF5
:100CC0000014014000180140000C014000080140E0
:100CD00000B59DB00E200790002008901A200990C2
:100CE00000200A900B900C900D90022000900120A3
:100CF000019002200290002003900490059006903D
:100D000002200E9000200F901090119012901390DE
:100D10001490159016904FF4805017900020189062
:100D20004FF48040199000201A9007A81B90CDF82E
:100D300070D00EA8FFF772FD01210220FFF754FDCD
:100D40001DB000BD4FF0C04210707047014A1070D6
:100D5000704700000000086010B5FFF769FFFFF75B
:100D6000B7FF44F6206001F079F9FFF75BFE01F070
:100D70005DF910BD2DE9F04706460C4604F00F0959
:100D80004FEA141809F16000FFF7DCFF08F1700169
:100D900088B2FFF7D7FF06F1250707F00F05C7F365
:100DA000031A2846FFF7CEFF0AF11000FFF7CAFF2B
:100DB000BDE8F0872DE9F04106460C4617460320B2
:100DC00096FBF0F0C5B20FB1FF2700E000272146E7
:100DD0002846FFF7CFFF032096FBF0F100FB1160E0
:100DE000A0B904EBC40000EB40002F4901EB8000E8
:100DF00030F8150067F34A1004EBC40101EB410120
:100E0000294A02EB810121F8150036E0032096FB08
:100E1000F0F100FB1160012814D104EBC40000EBD9
:100E20004000214901EB800030F8150067F3040011
:100E300004EBC40101EB41011B4A02EB810121F8E3
:100E400015001AE0032096FBF0F100FB1160022868
:100E500013D104EBC40000EB4000134901EB800008
:100E600030F8150067F3CF2004EBC40101EB41011A
:100E70000D4A02EB810121F8150004EBC40000EBE0
:100E80004000094901EB800000EB45010748098853
:100E9000018001460878FFF759FF04494878FFF7B9
:100EA00055FF0120BDE8F0814E01002038000020F0
:100EB00000BFFEE7704708B52E208DF80000002027
:100EC0008DF8010001208DF802008DF803006846BE
:100ED00000F002F808BD000070B5002100230F22C9
:100EE000C47804B3154C246804F4E064C4F5E064E9
:100EF000210AC1F10403CA40447804FA03F184785A
:100F00001440214309010E4C0678A155047804F0E1
:100F10001F050124AC4005786D11AD0005F1E025F9
:100F2000C5F8004109E0047804F01F050124AC4035
:100F3000044D0678761145F8264070BD0CED00E0B2
:100F400000E400E080E100E002490143024A116050
:100F5000704700000000FA050CED00E0704700004B
:100F600029B1064A52690243044B5A6104E0034A1C
:100F700052698243014B5A617047000000100240E1
:100F800029B1064A92690243044B9A6104E0034A7C
:100F900092698243014B9A61704700000010024041
:100FA0007047000001490870704700003C000020B5
:100FB00010B500F001F810BD0CB5002001900090B4
:100FC0003348006840F480303149086000BF304841
:100FD000006800F4003000900198401C01900098D7
:100FE00018B90198B0F5A06FF1D12948006800F454
:100FF000003010B10120009001E000200090009826
:10100000012843D12348006840F0100021490860BE
:101010000846006820F0030008600846006840F0B9
:10102000020008601A48406819494860084640684C
:1010300048600846406840F4806048600846406860
:1010400020F47C1048600846406840F4E81048608E
:101050000846006840F08070086000BF0C480068D7
:1010600000F000700028F9D00948406820F0030023
:10107000074948600846406840F00200486000BFE9
:101080000348406800F00C000828F9D10CBD0000AE
:10109000001002400020024010B522480068401CA9
:1010A0002049086020480068401C1F4908601D480E
:1010B00000684FF47A71B0FBF1F201FB120028B91D
:1010C0004FF400611948FFF7A7FC0DE015480068D0
:1010D0004FF4FA71B0FBF1F201FB120020B94FF4AA
:1010E00000611248FFF79AFC0F4800681049096830
:1010F000884215D900200C4908600E48006840B1AC
:1011000000200C4908604FF400610B48FFF786FC93
:1011100006E0012007490860C1020748FFF77CFC90
:1011200010BD00001800002030000020000C01401D
:101130002C000020340000200018014010B5134896
:10114000006840F0010011490860084640681049F5
:1011500008400E494860084600680E4908400B499F
:1011600008600846006820F480200860084640684F
:1011700020F4FE0048604FF41F008860FFF718FF5E
:101180004FF000600449086010BD000000100240EC
:101190000000FFF8FFFFF6FE08ED00E0F0B50C469A
:1011A000154600220021068C4FF6FE773E4006844D
:1011B000028B018C4FF60C7632407E1C06EA031639
:1011C0002E433243104EB0420ED0104EB0420BD0E0
:1011D000B0F1804F08D00E4EB04205D00D4EB04257
:1011E00002D00D4EB04206D14FF6FD76314044F0AC
:1011F0000106314305E04FF6F576314044F0010633
:10120000314302830184F0BD002C014000340140D1
:101210000004004000080040000C0040F0B50C46FF
:101220001546002200210026078C4FF6EF7C07EAC6
:101230000C070784028B018C4FF6FF7707EA041630
:1012400040F6FF473A404FF6FF7707EA03373A4345
:101250004FF6FF7707EA05273A43114FB8420ED001
:10126000104FB8420BD0B0F1804F08D00E4FB842AB
:1012700005D00E4FB84202D00D4FB84206D14FF6FE
:10128000DF77394046F01007394305E04FF65F77C6
:10129000394044F01007394302830184F0BD000057
:1012A000002C0140003401400004004000080040D0
:1012B000000C0040F0B50C46154600220021002627
:1012C000078C4FF6FF6C07EA0C070784828B018CB2
:1012D0004FF6FF7707EA04264FF60C773A404FF6B1
:1012E000FF7707EA03172F433A43114FB8420ED056
:1012F000104FB8420BD0B0F1804F08D00E4FB8421B
:1013000005D00E4FB84202D00D4FB84206D14FF66D
:10131000FF57394046F48077394305E04FF2FF57D5
:10132000394044F48077394382830184F0BD000062
:10133000002C01400034014000040040000800403F
:10134000000C0040F0B50C46154600220021002696
:10135000078C4EF6FF7C07EA0C070784828B018C12
:101360004FF6FF7707EA043640F6FF473A404FF65C
:10137000FF7707EA05273A434FF6FF7707EA033777
:101380003A43114FB8420ED0104FB8420BD0B0F1D3
:10139000804F08D00E4FB84205D00E4FB84202D051
:1013A0000D4FB84206D14DF6FF77394046F48057CD
:1013B000394305E047F6FF57394044F48057394335
:1013C00082830184F0BD0000002C01400034014004
:1013D0000004004000080040000C004010B5082147
:1013E000204800F05FF801283BD108211D4800F09B
:1013F00047F81D48008840B91A4800F050F81B49CA
:1014000008800120184908802BE01748008801282F
:1014100027D1144800F043F8154908800846008891
:1014200012490988884207DD114800880F49098858
:10143000401A1049086009E00C4800884FF6FF7117
:10144000081A0B49098808440A4908600A480068D4
:1014500008490968B0FBF1F008490860002002491A
:10146000088010BD00340140200000201C00002036
:101470001E000020240000208800002028000020FA
:10148000CA430282704721B1028842F00102028001
:1014900004E002884FF6FE731A400280704701464E
:1014A000888F704730B50246002000230024158A3B
:1014B00005EA0103958905EA010413B10CB1012085
:1014C00000E0002030BD000070B505460C46244801
:1014D00085420ED0234885420BD0B5F1804F08D00D
:1014E0002148854205D02148854202D020488542C6
:1014F00000D100E000BF208850B92389A28861880C
:101500002846FFF74BFEE188284600F03CF825E02E
:10151000208804280AD12389A28861882846FFF7F9
:101520007DFEE188284600F037F817E0208808287B
:101530000AD12389A28861882846FFF7BBFEE1888B
:10154000284600F036F809E02389A28861882846F9
:10155000FFF7F8FEE188284600F034F870BD00007F
:10156000002C01400034014000040040000800400D
:10157000000C00401AB183890B43838102E0838908
:101580008B4383817047028B4FF6F3731A400283BB
:10159000028B0A4302837047028B4FF2FF331A40DB
:1015A0000283028B4FF6FF7303EA01231A4302837F
:1015B0007047828B4FF6F3731A408283828B0A4303
:1015C00082837047828B4FF2FF331A408283828B73
:1015D0004FF6FF7303EA01231A438283704700002A
:1015E000002202881D4B98420ED01D4B98420BD012
:1015F000B0F1804F08D01B4B984205D01A4B98424F
:1016000002D01A4B984204D14FF68F731A404B8880
:101610001A43174B984207D0164B984204D04FF606
:10162000FF431A40CB881A4302808B8883850B883E
:1016300003850A4B98420BD0094B984208D00E4BB9
:10164000984205D00D4B984202D00D4B984201D1E3
:101650000B7A03860123838270470000002C01402F
:10166000003401400004004000080040000C00402D
:1016700000100040001400400040014000440140C0
:101680000048014000B587B001214803FFF778FC0E
:101690004FF6FF70ADF808000020ADF80400ADF87B
:1016A0000A00ADF8060001A90F48FFF799FF0820CE
:1016B000ADF810000A20ADF812000120ADF81400BA
:1016C0000020ADF81600ADF8180004A90648FFF791
:1016D000FBFE01210448FFF7D6FE01220821024843
:1016E000FFF748FF07B000BD0034014000BFFEE730
:1016F00010B500F003FD10BD0FB4084B10B504A9E0
:1017000002AA039800F0DEF8044602A9002000F0C7
:1017100070FC204610BC5DF814FB0000F31F0008AD
:1017200002E008C8121F08C1002AFAD170477047AA
:10173000002001E001C1121F002AFBD17047000008
:101740002DE9FF5F82B00021DDE90430020DDDF8F4
:1017500040B0034318D044F61050A2F2FF32424387
:101760001514119801281FD0A5EB0B00401C5FEA4F
:10177000000A4FF000064E4FDFF83891B046504651
:1017800015D5CAF1000413E0119801244AA30128D9
:1017900001D16FEA0B010298119AC0E90031C0E94A
:1017A000024206B0BDE8F09FCBF10000DFE704463F
:1017B0000021404A491842EB0450CDE9001012E0E4
:1017C000E00707D032463B4640464946FEF7D3FC89
:1017D0008046894632463B4610461946FEF7CBFC0A
:1017E00006460F466410002CEAD1DDE90401DDE96C
:1017F0000023BAF1000F06DAFEF7BDFC42464B4665
:10180000FEF7B9FC05E0FEF773FE42464B46FEF7D5
:101810006FFE04460E460022284BFEF7F1FE03D869
:101820004FF0FF30014607E00022254B20463146AD
:10183000FEF7B7FDFEF7CBFE102409E0002C0ADB13
:101840000A220023FEF71FFD039B30321A55641E47
:1018500050EA0102F2D1641C039AC4F1110314444A
:10186000119A012A03D0012208430DD10AE008434E
:1018700004D000204FF0110B119072E7A3EB0B0581
:101880006D1E0DE05B4504DD4FF0000205F1010522
:1018900004E003DA4FF00002A5F10105002AECD0C4
:1018A00002981199C0E90231C0E9004579E70000CA
:1018B000000014400000F03F300000000000F04342
:1018C0000000E03F2DE9FF4F95B09B468946064654
:1018D00000250FE2252877D100242746F84A012168
:1018E000059400E0044316F8013F203B01FA03F0A1
:1018F0001042F7D130782A2811D06FF02F033078BA
:10190000A0F13002092A16D8059A44F0020402EB2D
:10191000820203EB42021044761C0590EFE759F86F
:10192000042B0592002A03DA504244F40054059037
:1019300044F00204761C30782E2816D116F8010FD8
:1019400044F004042A280DD06FF02F023078A0F163
:101950003003092B09D807EB870302EB4303C718B1
:10196000761CF3E759F8047B761C30786C280FD08E
:1019700006DC4C2817D068280DD06A2814D104E062
:10198000742810D07A280FD10DE044F400140AE036
:1019900044F4801401E044F440147278824202D18D
:1019A00004F58014761C761C307866280BD013DC86
:1019B000582877D009DC002875D04528F6D046286D
:1019C000F4D047281AD19DE118E0632835D0642867
:1019D00079D0652812D195E1702873D008DC67288A
:1019E000F1D069286FD06E280DD06F2806D1B5E0F0
:1019F00073282CD0752875D0782874D05A4617993A
:101A000090476D1C75E1C4F30250022809D00328E9
:101A10000DD0D9F8001004280DD00D6009F104098B
:101A200067E1D9F80010EA17C1E90052F6E7D9F8E2
:101A300000100D80F2E70D70F0E719F8041B8DF827
:101A4000001000208DF80100EA46012003E059F85B
:101A500004AB4FF0FF3061074FF0000102D40DE0FE
:101A600008F101018846B9420FDA8045F8DB1AF81F
:101A700008100029F4D108E008F1010188468142EC
:101A8000FADB1AF808100029F6D105985B46A0EB9E
:101A9000080721463846179A00F094FA284400EBCC
:101AA000080507E04DE029E10DE01AF8010B5A4660
:101AB00017999047B8F10108F7D25B46214638469E
:101AC000179A13E142E00A220092C4F302524FF047
:101AD000000A022A08D059F804CB032A4FEAEC7115
:101AE0000AD00DE029E02AE009F1070121F0070200
:101AF000F2E802C1914609E00FFA8CFC4FEAEC7162
:101B0000042A03D14FFA8CFC4FEAEC71002907DA62
:101B10000A460021DCF1000C61EB02012D2202E0FB
:101B2000220504D52B228DF80420012203E0E207D0
:101B300001D02022F7E7904659E00A2102E0102266
:101B40000DE010214FF0000A00910BE010224FF041
:101B5000000A44F004040827009203E008224FF032
:101B6000000A0092C4F30252022A05D059F804CBAD
:101B70000021032A08D009E009F1070121F007023A
:101B8000F2E802C1914605E01FFA8CFC042A01D15B
:101B90000CF0FF0C4FF00008220728D5702806D063
:101BA000009B83F0100353EA0A0305D00EE04022A5
:101BB0008DF80420012208E05CEA010206D0302200
:101BC0008DF804208DF8050002229046009B83F0DA
:101BD000080353EA0A030AD15CEA010201D1620751
:101BE00005D530228DF804204FF001087F1E5828BB
:101BF00004D034A003900EA802900DE036A0F9E7BF
:101C000053466046009AFEF73EFB84460398825C8A
:101C10000298401E029002705CEA0100F0D1029826
:101C200006A9081A00F1200A600702D524F48034BE
:101C300000E00127574502DDA7EB0A0000E0002085
:101C400000EB0A01009005984144401A0590E0031A
:101C500006D45B462146179A059800F0B3F905446F
:101C6000002706E001A85A46C05D179990476D1CF1
:101C70007F1C4745F6DBE0030CD55B462146179AEF
:101C8000059800F09FF9054404E030205A46179962
:101C900090476D1C0099481E00900029F5DC08E073
:101CA000029802995A460078491C02911799904768
:101CB0006D1CBAF10001AAF1010AF1DC65E1000036
:101CC0000928010030313233343536373839616212
:101CD00063646566000000003031323334353637D6
:101CE00038394142434445460000000000F058F9AD
:101CF0000544761C307800287FF4ECAD19B02846F6
:101D0000BDE8F08F620700D4062709F1070222F030
:101D1000070CFCE80223E14603F000485FEA080CE8
:101D200002D00FF2702C0DE05FEA045C02D50FF2D6
:101D3000682C07E05FEAC47C02D00FF2602C01E05F
:101D4000AFF2700C4FF0FF3823F00043CDF850C0D5
:101D500065280CD006DC452809D046281DD0472828
:101D60003DD13DE0662818D067287ED138E00021BB
:101D7000112F01DB112000E0781CCDE9000106A93C
:101D80000EA8FFF7DDFCDDE90F010E9A039100219B
:101D9000009207F1010A04914DE04FF000400097D6
:101DA000CDE9011006A90EA8FFF7CAFCDDE90F0274
:101DB00003920E9B11990022DDF80CA0009304926F
:101DC00011B9791C00EB010AB7EB0A0004D4C0F189
:101DD000FF3007F1010A0490AAEB0700019044E0EC
:101DE000012F00DA01270021112F01DD112000E071
:101DF0003846CDE9000106A90EA8FFF7A1FCDDE9F0
:101E00000F010E9A0391002104910092BA46210716
:101E10000CD40399514500DA8A46BAF1010F05DD69
:101E2000009AAAF10101515C302908D0B84202DAC7
:101E300010F1040F06DA0121CDE9011015E0AAF135
:101E40000101E9E7002805DC049901440491AAEBAB
:101E5000000102E0411C514500DD8A460499401A08
:101E6000401C01904FF000400290200704D40198DC
:101E7000504501DBCDF8048000208DF84F0002981A
:101E80000DF14F07B0F1004F25D02B200E90029896
:101E90004FF0020800280CDA404202902D200E90EC
:101EA00007E00A210298FEF7D8F93031029007F8CE
:101EB000011DB8F10001A8F10108F2DC0298002828
:101EC000EFD1791E0E980870307800F0200040F0B5
:101ED000450007F8020D12A8C01B00F1070814986E
:101EE000007800B1012000EB0A01019801EBE071DC
:101EF00005984144401A401E0590E00306D45B4615
:101F00002146179A059800F05DF80544149800786A
:101F100018B15A46179990476D1CE00324D55B46CB
:101F20002146179A059800F04DF805441CE00498E6
:101F3000002807DBDDE90301884203DD0098405CEF
:101F4000179901E0179930205A469047049805F1F7
:101F50000105401C04900198401E019004D12E20E0
:101F60005A46179990476D1CBAF10001AAF1010A6F
:101F7000DDDC05E017F8010B5A46179990476D1CF8
:101F8000B8F10001A8F10108F4DC5B462146179A7C
:101F90000598ABE62D0000002B000000200000009B
:101FA0002DE9F041044600251E461746880404D456
:101FB00005E039462020B0476D1C641EF9D528463F
:101FC000BDE8F0812DE9F041044600251E4690460B
:101FD000C80301D5302700E02027880404D505E098
:101FE00041463846B0476D1C641EF9D52846BDE809
:101FF000F0810A68531C0B601070704708B501210E
:102000000820FEF7BDFF03208DF8020014208DF894
:102010000300C020ADF8000069460348FEF771FCDC
:1020200000F092F908BD0000000C014070B50021DD
:102030000846FEF79FFE00240DE0002507E0002083
:10204000FEF784FE0020FEF781FE681C85B2292D74
:10205000F5DB601C84B2A02CEFDB70BD00BF011E5D
:10206000A0F10100FBD1704710B5A02000F0D0F81E
:1020700008B9012010BD00F067F90020FAE72DE94A
:10208000F04107460D46164600F046F9A02000F044
:1020900019F900F069F900B12CE0281200F012F9EA
:1020A00000F062F900B125E0E8B200F00BF900F0B1
:1020B0005BF900B11EE000F02FF9A12000F002F959
:1020C00000F052F900B115E000240CE000F0D8F85F
:1020D0003855701EA04202D000F082F801E000F0F6
:1020E000BBF8601C84B2B442F0DB00F02DF9012093
:1020F000BDE8F08100F028F90020F9E710B586B0BE
:10210000002462E0FFF7B0FF30B1002000EB0411C3
:10211000102202A8FFF7B3FF9DF808008DF8040015
:102120009DF809008DF80500BDF80400294921F843
:1021300024009DF80A008DF804009DF80B008DF82E
:102140000500BDF8040001EB840148809DF80C00F7
:102150008DF804009DF80D008DF80500BDF8040011
:102160001D4921F824009DF80E008DF804009DF80B
:102170000F008DF80500BDF8040001EB84014880D4
:102180009DF810008DF804009DF811008DF80500F1
:10219000BDF80400114921F824009DF812008DF8C3
:1021A00004009DF813008DF80500BDF8040001EB54
:1021B00084014880FF208DF814008DF815008DF8FB
:1021C00016008DF81700601CC4B2082C9ADB06B00C
:1021D00010BD0000EE0000200E0100202E010020A6
:1021E00010B580200949086000F02EF8402007490A
:1021F000091F086000F028F840200449086000F03A
:1022000023F880200149091F086010BD140C01400B
:1022100070B504460B48006800F0800080B10948A2
:10222000006800F0400058B100F076F8204600F059
:1022300049F800F099F8054600F086F8284670BD88
:102240000120FCE7080C0140002001E0411CC8B25D
:102250001E28FBDB7047000010B58020074908608E
:10226000FFF7F2FF402005490860FFF7EDFF40202F
:102270000249091D0860FFF7E7FF10BD100C01407F
:1022800070B50024002516E06006040E40200C49BD
:102290000860FFF7D9FF0A480838006800F080009E
:1022A00008B1601CC4B240200549091D0860FFF751
:1022B000CBFF681CC5B2082DE6DB204670BD0000D0
:1022C000100C014070B50446002520E004F08000A9
:1022D00018B180200F49086003E080200D49091DD6
:1022E0000860FFF7B1FF40200A490860FFF7ACFF24
:1022F00040200849091D0860072D02D18020091FD0
:1023000008606006040EFFF79FFF681CC5B2082D29
:10231000DCDB70BD100C014010B58020094908605D
:1023200040200860FFF790FF80200649091D0860E3
:10233000FFF78AFF40200349091D0860FFF784FF6B
:1023400010BD0000100C014010B580200549086048
:102350004020091F0860FFF777FF80200149091F0F
:10236000086010BD140C014010B580200C490860B5
:10237000FFF76AFF40200A490860FFF765FF084839
:102380000838006800F0800008B1012400E0002453
:1023900040200349091D0860FFF756FF204610BD85
:1023A000100C014086B04FF44070FEF7CDFD31486F
:1023B00000684FF47A72B0FBF2F1B1F1807F00D384
:1023C0001DE021F07F40401E4FF0E0225061501789
:1023D0000F22002807DA13071D0E274B00F00F0409
:1023E000241F1D5503E013071C0E244B1C5400BF73
:1023F00000204FF0E02290610720106100BF012112
:102400000820FEF7BDFD03208DF8020010208DF896
:102410000300C001ADF8000069461948FEF771FAE3
:10242000FEF749F9FFF720FE20B10A2200211548E6
:10243000FFF725FE0020FEF7B5FD124A00210846F1
:10244000FEF7AEF910481149086012E01048006824
:102450006421B0FBF1F201FB120050B90D48026893
:102460000DA101A8FFF748F901AA10210020FEF7ED
:1024700097F9EBE78800002018ED00E000E400E0A9
:10248000000C01409C0000207856341214000020FB
:1024900018000020280000202564487A0000000071
:1024A000C9EEDBDACAD0D0C0C8F0B4EFB5E7D7D3F5
:1024B000D3D0CFDEB9ABCBBEB3C9C1A2D3DAC4EAA5
:1024C000D4C2A3ACD7A8D2B5B4D3CAC2D2BABEA71D
:1024D000CFD4CABEC4A3BFE9B5C4D1D0B7A2A1A20C
:1024E000C9FAB2FACFFACADBB2A2CCE1B9A9C8AB39
:1024F000CCD7BCBCCAF5B7BDB0B8A1A3CAC7BAABEC
:10250000B9FAD6D0C7F8D3F2CADAC8A8D7DCB4FA79
:10251000C0EDCCA8CDE5B2C9B9E2B4F3C2BDD6B81E
:10252000B6A8C9CCCEAAB9E3D3C3BBA7C8D5B1BEA0
:10253000C6C1BACDC6B7D2D4BCB0B8F7D6D6D6DCF1
:10254000B1DFC5E4BCFEA3A8C4E6B1E4C6F7B9A4F4
:10255000BFD8B0E5C1ACBDD3CFDFC0C2B4A5C3FE08
:10256000D7AAC7FDB6AFBFA8B5C8A3A9400027FE2C
:1025700024040120811856085040104027FC2040B8
:10258000C0E04158464E58444040404000001204CC
:1025900012441244FE44124412441244124412449F
:1025A0003A44C4440444080410040000020001003A
:1025B000FFFE010001001FF81108110811081108A1
:1025C00011081108112811100100010003403C40BE
:1025D0002040207E20843EA8252024202420242062
:1025E0002450444844888506060400000020F9244D
:1025F0002124212421FC2000FBFE204023FE225226
:102600002A523252C2520252024A02040000408050
:10261000308010800FFC00800080E080214021206D
:102620002218240C280850028FFC00000100010031
:1026300001003FF8210821083FF82108210821085E
:102640003FF821080102010200FE000000003FF0F7
:10265000002000400080010001000104FFFE010095
:10266000010001000100010005000200010001005D
:102670007FFE020004000FF0181028104FF08810A1
:1026800008100FF008100890087008200000FBF8F0
:10269000920893F8A208A20893F88A808A48AA5060
:1026A000922082208210828E8304820000000440E7
:1026B00006400440082008101018220E43040200AF
:1026C0000420081011F83F181010000000003FFC13
:1026D000000400047FE4000400043FC420442044BC
:1026E0003FC42044200400140008000000A0009013
:1026F00000803FFE208020803E88228C224822508D
:1027000022202A604492410A86060002020001004B
:10271000010000007FFC00200030102008400C4029
:102720000440048000800104FFFE000000003FFC24
:102730000100010001000100FFFE01000100010095
:1027400001000100010009000500020008000FFC63
:102750001080108020804FF88880088008800880D2
:10276000FFFE0080008000800080008007F00410E1
:102770000410041007F004100410041007F00410F3
:102780000810081010102050402000000000000029
:102790000000000000000000000000000000000039
:1027A0000000300030001000200000000100010097
:1027B0003FF802000200FFFE040008200FF0002096
:1027C00000400280010000800040000004400440FE
:1027D000044004444446244C244814501C501460C3
:1027E000044004400444FFFE00000000084008408C
:1027F0000840084008400840084008A014A0129073
:1028000012902108230C4206840408000100FFFEF8
:1028100001001FF811081FF801003FF80108FFFE32
:1028200001083FF80108090005000200404020208F
:1028300027FE09208920527C524416A82B9822504A
:10284000E220223022502288230E220400000FF0C2
:1028500008100FF008100FF0081000007E7E4242B2
:102860007E7E424242427E7E4242000000001FF0D5
:1028700010101FF010101FF004400440444824487A
:10288000145014600440FFFE0000000000001FF818
:102890000000000000007FFE010001001120111067
:1028A0002108410C810401000500020020902090C5
:1028B00027FC2090FBF8220873F86A08A3F8A040D0
:1028C00027FE204020A02098210E26042080208072
:1028D000208023F8F8882088208820882FFE2080F8
:1028E0003940E1204218020E0404080010801080D4
:1028F00020807CFC4504450446047C8444444464B4
:10290000442444047C044428401000000000FDFEE0
:1029100010881088208820887BFE6888A8882888EE
:1029200028882908390822080408080802002240DB
:10293000223022107FFE2400040007E00C200A2031
:102940000A20114020804160861C18080000000009
:102950000000000000000000000000000000000077
:10296000000060003000100000000000008010C077
:10297000108010881FFC2080208040889FFC0080F1
:1029800000800080008000847FFE00000100008045
:102990007FFE0810062024443FFE20002000200077
:1029A0002000200040004000800000001020112482
:1029B0003EA4206841FC7D04910411FCFD04110437
:1029C00011FC1104110415041914110809000880E0
:1029D0001FFC10803FF850809FF810801FFC000003
:1029E0001FF81008100810081FF810081010081819
:1029F000061004207FFC0420042004207FFE042015
:102A0000042004200820082010202020100011F8A5
:102A10001108FDF8110811F8180037FC50409240D9
:102A2000127C1240164015C0587E2000100019106C
:102A30001110211037FC6110A110211021102FFE60
:102A4000212023102218240C280820000100010056
:102A5000028004400830101C3FF8410001000110C2
:102A60001FF80100010001047FFE000002000200C7
:102A70007FFE04400FE03818CFEE08040FE0080096
:102A8000FFFE0400082011F03F1800101020102055
:102A90001020FDFE1020142019FC3108D088109061
:102AA000106010601090110E5604200001000120EB
:102AB00001100100FFFE0100038005400520091000
:102AC0001118210EC10401000100000002000100E4
:102AD0000080FFFE0200020003F002100410041048
:102AE0000810081010102090C060000002000100C3
:102AF0003FFC220804407FFC0C8003801E60012004
:102B00007FFE03400D30710E010401000000000043
:102B100000000000000000000000000000000000B5
:102B200030004800480030000000000000000FF0B6
:102B300008100FF008100FF00000FFFE0100090060
:102B400009F809001500230040FE000010201020A5
:102B5000FDFE10207C2044FC7C2044207DFE1022C1
:102B6000FE221022102A10241020102000007FFCCA
:102B700040045FF44104410441044FE441444124D2
:102B800041245FF4400440047FFC40040100010044
:102B900021083FFC210821082108210821083FF8CD
:102BA00021080100010001000100010000007FFC7C
:102BB0004020403048204640414040804140422033
:102BC0004430481850107FFC0000000020202028CE
:102BD000202427FEF820202427A624A424A827A800
:102BE00024903832C34A0C8A03040000203C27C0DA
:102BF0002084FA48215027FE2C04300063F8A110ED
:102C000020A0204020A0231CAC0840001000100091
:102C100011FCFE8410883088388834485450505055
:102C2000902010201050118E16041000082004204F
:102C300004401FF01010101010101FF000000100D1
:102C4000088828842816681207F00000110019204F
:102C50001110110821FC3F0050809080108010401E
:102C6000104010241014100C10060000000003FC8B
:102C7000FA44224423FC2244FA4423FC2244204008
:102C800023FC3840C04000400FFE000001000180DE
:102C900002000410080811FC3F0800001FF010108B
:102CA0001010101010101FF01010000020801040A5
:102CB00017FE08A08AA454A253F8100823F8220093
:102CC000E3FC20042004200420142008000001F864
:102CD0007E000010111008A001007FFE018003405B
:102CE00005200918310EC104010001000100211066
:102CF00019180D10092001047FFE0440044004400F
:102D00000440084208421042203E400001000100F9
:102D1000010001000100FFFE01000280028002406C
:102D20000440042008101018200E40040040F84011
:102D3000884097FCA040904088408FFE8840A84083
:102D400094448444844487FC840480001100113836
:102D500011C01104FD0411FC140019FC3104D1044C
:102D600011FC11041104110451FC200002000100A7
:102D70003FFE200440081FF001001100110011F077
:102D8000110029002500430081FC000001000080A3
:102D90007FFC042002403FF8224824283FE82448D2
:102DA000244827C8244824082028201000801080A8
:102DB0000C8004847FFE0104010401840144022488
:102DC00002240404084410282010000001000080A0
:102DD0003FFE2000200020002000200020002000D6
:102DE00020002000400040008000000000001FFC88
:102DF0001084108410841FFC1084108410841FFC25
:102E0000108410842084208440948088010000C0B5
:102E100000401FFC1004100410041FFC10001000E0
:102E200010001000200020004000800000001FF073
:102E300010101010101010101FF0101010101010A3
:102E4000101010101FF01010000000000100010011
:102E50000100FFFE03800340054005200910111802
:102E60002FEEC10401000100010000003FFC20041E
:102E700020043FFC241022202FFC222022203FFE91
:102E80002220222044204420882010200000070017
:102E90007800087C08447F44084418441C442A44B1
:102EA0002B444A44887C08440800080000000FF0C6
:102EB0000810081008100FF0081000007EFC428473
:102EC0004284428442847EFC42840000001024102C
:102ED00022102310221020102010211022102C303C
:102EE0003830706820C401070602000000003FE08F
:102EF000042004200440044004F80A500A10092069
:102F0000112010C0212042188C0E3004040004004F
:102F100007F00C201220624001800660181EEFF4BA
:102F200008100810081008100FF000000620782084
:102F3000082008207DFC09241D241B2429FC2924A9
:102F400048208820082008200820082000001FFCB6
:102F5000108413E41084108417F4100413E4122472
:102F6000122413E42224200440148008408020808E
:102F70003080208007F80088F08810881108110838
:102F8000120814701020280047FE00000000FEFC0C
:102F900028042804FE04AA04AAFCAA80C680828011
:102FA000FE8082828282FE82827E000010401A4071
:102FB0001340324023FC6440A44028402FFE2040B0
:102FC000204020402040204020402040000C0010A5
:102FD00000200040004000800080008000800080D1
:102FE00000800040004000200010000C0210411042
:102FF000212027FC00400040E248224823F820809E
:1030000020802100220050008FFE0000020001807D
:103010007FFE024012501A4C224642449FF0042088
:103020000420024001800660181EE0083E7C224415
:1030300022443E7C01100108FFFC06C01830E00E5F
:103040003EFC2288228822883EF8000000003FFCD7
:103050000100010001000100010001000100010068
:10306000010001000100FFFE000000001000102020
:103070001010FDFE11041050148C19043000D1FC06
:10308000102010201020102053FE2000101C11E0F2
:1030900011001100FD0011FC3984354855485230AB
:1030A000921012301448108E1104000040802080CD
:1030B00037FC210001400240F7F8124010401FFE8B
:1030C000104010401040280047FE00001040102023
:1030D00013FCFD08109017FE140018803080DFFEEE
:1030E0001110131010E01050518C2604104018508D
:1030F000104C204823FC4840F84013FE20407C48F8
:10310000003000221CD2E30A000600020090229048
:10311000329E22A04AC8F08413F822084248FA4896
:10312000024800A038A2E122021E040020103F1035
:10313000211042107F7CC9547F54495449547F7CEC
:10314000491049144912491E85F20200111011104C
:1031500017FEF91013F812081BF83208D3F81040C4
:1031600017FE104010A01098510E260410201020B9
:103170002020FEFC2040504091FEFE40108011FCBB
:103180003C08D08810501020101010100000F9FEDC
:10319000090049044984494849287D100518052833
:1031A0003524C5440584290011FE000000200020BC
:1031B0007E20002000FCFF2410241024242422243C
:1031C0004F44FA4440840114020800000100010049
:1031D00001FC0100010001007FFE0100010001402F
:1031E00001300118010C01080100010020803EFCA3
:1031F00028A0451085103FF80100FFFE00200020A8
:103200007FFC04200220022000A00040600010008B
:103210000800040004000200020002000200020094
:10322000020004000400080010006000000001001B
:10323000008000800080008000843FF8018002C090
:1032400002C002A004A0049008900888108C2FF6F9
:1032500040800080008000800080010000000000AD
:1032600010201020102011201120112C11343D6449
:1032700011A41724112411241124113C112A152200
:1032800019026102410201FE00000000000000007E
:103290000000200813F8100010000004035C00A0D8
:1032A00070A0112011201120112011241224123697
:1032B000141C6800460043FC0000000000000000F1
:1032C00004003CFE48840884088408842EFC18848A
:1032D000180018001DFC1A202820282029FC48204E
:1032E0004820082008220BFE080000000000008093
:1032F0000840104013FC1000100821F8310831F884
:103300005108540017FE14041C0813FC1040104010
:1033100010401040104011C010400000000000009C
:1033200000C000800080008000800080088008FCD1
:10333000088008800880088008800880088008804D
:1033400008800880088677780000000000000820C8
:103350000810082008247FFE0C301A681A6828A478
:1033600028A6492000081FF800007FFE008004A066
:103370000C900888108C23840100000000000000DD
:1033800000C000800080008000800080088008FC71
:1033900008800880088008800880088008800880ED
:1033A0000880088008867778000000000000000090
:1033B00000001BDC0420042004200420042004203E
:1033C00004267FFE0420042004200420042008207A
:1033D00008201020102020204020000000000000C5
:1033E000042004200220024002443FFC01000100AE
:1033F0000100010001067FFE014001400240022061
:10340000042004100818100E200400000000000022
:1034100010000BFC0804288422A4229424942494F1
:1034200024EC2F842C9434A42464244424CC252C10
:103430002634240C2004201C200C0000400027FE11
:1034400024040120811856085040104027FC2040D9
:10345000C0E04158464E58444040404020002000C3
:10346000FF0720007000A800A80024012202FD052B
:103470002000200084008400A406A405EF04B40406
:10348000A404A406A4002C042304C00711001FE018
:10349000200027C06440A7C020002FE0282027C0BC
:1034A00021002300020002000200220023C02200AB
:1034B00022002200220022002200FFE00000000083
:1034C00000000000000000000000000000000010EC
:1034D00010101010101000001818000000123624F0
:1034E0004800000000000000000000000000002470
:1034F0002424FE484848FE48484800000000103890
:10350000545450301814145454381010000000440F
:10351000A4A8A8A8541A2A2A2A44000000000030AF
:10352000484848506EA49488897600000060602066
:10353000C0000000000000000000000000020408BD
:10354000081010101010100808040200004020108D
:1035500010080808080808101020400000000000AB
:103560001010D63838D610100000000000000000FF
:1035700010101010FE1010101000000000000000CD
:103580000000000000000000606020C0000000009B
:10359000000000007F0000000000000000000000AC
:1035A0000000000000000000606000000000010258
:1035B00002040408081010202040400000000018F9
:1035C00024424242424242422418000000000010BD
:1035D0007010101010101010107C00000000003C43
:1035E0004242420404081020427E00000000003CD9
:1035F0004242041804020242443800000000000461
:103600000C14242444447E04041E00000000007EA8
:103610004040405864020242443800000000001C50
:103620002440405864424242241800000000007EBA
:103630004444080810101010101000000000003C56
:103640004242422418244242423C0000000000183A
:1036500024424242261A02022438000000000000E0
:1036600000001818000000001818000000000000FA
:1036700000000010000000000010102000000002F8
:103680000408102040201008040200000000000080
:103690000000FE000000FE000000000000000040EE
:1036A0002010080402040810204000000000003C24
:1036B00042426202040808001818000000000038A6
:1036C000445AAAAAAAAAB442443800000000001032
:1036D00010182828243C444242E70000000000F86B
:1036E000444444784442424244F800000000003E12
:1036F000424280808080804244380000000000F810
:10370000444242424242424244F80000000000FC6F
:10371000424848784848404242FC0000000000FC13
:10372000424848784848404040E000000000003CE3
:1037300044448080808E844444380000000000E7C8
:10374000424242427E42424242E700000000007C88
:103750001010101010101010107C00000000003E1F
:103760000808080808080808080888F0000000EEA3
:10377000444850705048484444EE0000000000E0C7
:10378000404040404040404042FE0000000000EE0B
:103790006C6C6C6C5454545454D60000000000C738
:1037A000626252524A4A4A4646E20000000000382D
:1037B000448282828282828244380000000000FCBF
:1037C000424242427C40404040E00000000000385D
:1037D000448282828282B2CA4C380600000000FC19
:1037E0004242427C4848444442E300000000003E1C
:1037F0004242402018040242427C0000000000FEC9
:10380000921010101010101010380000000000E787
:103810004242424242424242423C0000000000E733
:10382000424244242428281810100000000000D62A
:1038300092929292AAAA6C4444440000000000E7CD
:10384000422424181818242442E70000000000EE47
:103850004444282810101010103800000000007E8A
:10386000840408081020204242FC0000001E1010B2
:10387000101010101010101010101E00000040400A
:103880002020101010080804040402020078080820
:10389000080808080808080808087800001C220022
:1038A0000000000000000000000000000000000018
:1038B0000000000000000000000000FF0060100099
:1038C00000000000000000000000000000000000F8
:1038D0000000003C421E2242423F0000000000C0A7
:1038E00040404058644242426458000000000000DA
:1038F0000000001C22404040221C00000000000686
:103900000202021E22424242261B0000000000006A
:103910000000003C427E4040423C00000000000F9E
:103920001110107E10101010107C0000000000001C
:103930000000003E444438403C42423C000000C08D
:103940004040405C6242424242E7000000000030DA
:103950003000007010101010107C00000000000CEF
:103960000C00001C0404040404044478000000C09B
:103970004040404E4850684844EE0000000000704F
:103980001010101010101010107C0000000000002B
:10399000000000FE4949494949ED000000000000CF
:1039A000000000DC6242424242E7000000000000EA
:1039B0000000003C42424242423C00000000000045
:1039C000000000D864424242447840E00000000019
:1039D0000000001E22424242221E02070000000098
:1039E000000000EE3220202020F80000000000003F
:1039F0000000003E42403C02427C0000000000000B
:103A00000010107C10101010100C000000000000BE
:103A1000000000C642424242463B00000000000057
:103A2000000000E7422424281010000000000000DD
:103A3000000000D79292AAAA4444000000000000AF
:103A40000000006E24181818247600000000000002
:103A5000000000E742242428181010E000000000B5
:103A60000000007E44081010227E000000030404C1
:103A700004040408040404040404030008080808F7
:103A80000808080808080808080808080060101056
:103A9000101010081010101010106000304C43006F
:103AA0000000000000000000000000000000000016
:103AB00000000000000000000000000018181810AE
:103AC000101000000018000000162448000000003C
:103AD00000000000000000002024247E24247E2416
:103AE000440400000000182C4C28180C0E6A4A3CB4
:103AF0000000000060A49498A856192929460000E7
:103B0000000030484850206494948976000000609A
:103B10002020000000000000000000000002040857
:103B200008081010080808040200004020101010B7
:103B300010101010102040000000000018522C340B
:103B40005218000000000000000000083E080800B5
:103B500000000000000000000000000000006020E5
:103B60002040000000000000FE00000000000000F7
:103B70000000000000000000000060600000000085
:103B8000020404080810102020400000000018243F
:103B9000424242424242241800000000081808082D
:103BA00008080808083C00000000384642020408E3
:103BB0001020427E000000003844460408040242FF
:103BC000423C00000000040C141424447C04041E35
:103BD000000000003E4040407C020242423C0000A7
:103BE00000001C2640407C424242623C0000000033
:103BF0007E420404080810101010000000003C422F
:103C00004242342C4242423C0000000038444242CE
:103C1000426E120264380000000000000018180014
:103C20000000101800000000000000001800000054
:103C30000018100000000204083040601008040260
:103C400000000000000000FE0000FE000000000078
:103C500000004020100C0206081020400000000068
:103C60003C424242040800001018000000001C22E0
:103C70004D5565656E54423C000000001018182830
:103C800024245C4442C700000000F84642427C42C3
:103C9000424242FC000000001C22404040404040A4
:103CA000423C00000000F84442424242424244F892
:103CB00000000000FE4240447C44404042FE0000C0
:103CC0000000FE4240407C44404040E000000000D4
:103CD0001C224240C0C04242423C00000000E74279
:103CE00042427E42424242E7000000007E1818181D
:103CF00018181818187E000000003F04040404047B
:103D00000404040448300000E64448505068484425
:103D100044E700000000706060606060606062FE08
:103D200000000000C34246666A6A6A5252D7000029
:103D30000000C7626252524A464642E2000000005A
:103D40001826424243434242423C00000000FC42EB
:103D500042424678404040E00000000018264242BF
:103D60004242427A6A1C06000000FC424242744809
:103D70004C4444E30000000038464240300C02024C
:103D8000427C000000007E52901010101010103C79
:103D900000000000E742424242424242423C0000F0
:103DA0000000E7422424242418181010000000000A
:103DB000DB4A4A4A5A5A2C24242000000000662478
:103DC00024181818182424E700000000E7422424CF
:103DD00018181010103C000000003E4204080810A3
:103DE0001020427E0000001C101010101010101047
:103DF00010101C00000040202010100808040404CB
:103E000002000038080808080808080808083800F0
:103E1000003C000000000000000000000000000066
:103E20000000000000000000000000FF0030000063
:103E30000000000000000000000000000000000082
:103E40007C043C44453A00000000C04040487642B3
:103E50004242427C00000000000000003C40404024
:103E6000423C000000000602021A26424242463A44
:103E700000000000000000003C427E40423C000088
:103E800000000C13103810101010107C00000000FF
:103E9000000000003E4444783846423C0000C040E8
:103EA00040487442424242E7000000001808000007
:103EB00010101010103C000000000404000C04045A
:103EC0000404040444380000C0404040444858689A
:103ED0004467000000003010101010101010103C4B
:103EE00000000000000000744A4A4A4A4ADB000011
:103EF0000000000000087442424242E70000000057
:103F0000000000003C424242423C00000000000031
:103F1000001866424242427C40E00000000000007F
:103F20003E424242463A02070000000000242A3086
:103F3000202020F800000000000000003E201806AD
:103F4000427C000000000000103810101010120C0D
:103F5000000000000000000242424242463A0000D7
:103F600000000000000022242418180000000000B7
:103F7000000000004A4A5A2C2424000000000000DF
:103F8000000024180818246600000000000000004B
:103F900024242418180810600000000000007C4849
:103FA0001010227C00000004040404040808040427
:103FB0000404040008080808080808080808080895
:103FC0000808002020202020101020202020200081
:103FD0007009060000000000000000000000000062
:103FE0000000000000000000000000001818101081
:103FF000000000180000103448000000000000001D
:104000000000000020247E24247E440400000010D0
:104010002C4E28180C0A4A3C00000000E494986CCE
:104020001A2929460000000078485066A494887632
:1040300000006020200000000000000000000204DA
:10404000080808101008080402000060201010087A
:104050001010102040000000001876187610100094
:10406000000000000000087F0808000000000000B9
:10407000000000000000402020000000000000FEC2
:1040800000000000000000000000000000000060D0
:104090000000000202040808102020400000000078
:1040A0003C4242424242663800000000380808089C
:1040B00008080818000000007C4202040830427E14
:1040C000000000007C4604180602423C000000008C
:1040D0000C141424443C040C000000003E405864BE
:1040E0000202423C000000003E4048764242423C10
:1040F000000000007E0404081010101000000000F2
:104100007C42623C4442423C000000007C42424609
:104110003A024438000000000000180000000018B7
:104120000000000000001818000000181000000037
:104130000408304020100C02000000000000FE00C7
:104140007C0000000000000020100C020408304039
:10415000000000007E42420C100000180000000029
:104160003E4D5565657E413E00000000181828242C
:104170003C444242000000007E42427C4242427C7B
:10418000000000003E4040404040423C0000000033
:104190007C42424242424678000000007E40447C1D
:1041A0004440417E000000007E41407C4040406031
:1041B000000000003C4240C0C742423C00000000FA
:1041C0004242427E42424242000000003C1818181F
:1041D0001818183C000000001E0404040404040421
:1041E00078000000444850704844446600000000D5
:1041F000606060606060617E000000004246666A48
:104200006A525252000000006262524A4A464242DA
:10421000000000003C4242434342423C0000000098
:104220007E42427C40404060000000003C424242EE
:1042300042526A3C060000007E42427C484444628E
:10424000000000007E4240380602427C0000000070
:104250007E901010101010180000000042424242E0
:104260004242423C0000000042242424281810103E
:10427000000000004A4A4A5A5C242424000000003E
:104280002224181018242446000000004224241878
:1042900010101018000000007E0408081020607E36
:1042A00000001E1010101010101010101E00004002
:1042B00020201010080804040200780808080808E4
:1042C000080808087800182400000000000000001A
:1042D00000000000000000000000000000FF70006F
:1042E0000000000000000000000000000000384452
:1042F0001C64447A0000000040405C624242427C00
:1043000000000000000018264040423C000000026F
:1043100002021A264242463B000000000000182616
:10432000427C423C000000001F1038101010103872
:104330000000000000001A64443C704E423C000043
:1043400040405C62424242660000000018001010CB
:10435000101010180000000004000C0404040404F1
:104360004438000040404448506844660000000063
:104370001010101010101018000000000000744AF7
:104380004A4A4A5B0000000000001C62424242664A
:1043900000000000000018664242423C000000009D
:1043A00000001C624242427C40E000000000007EAF
:1043B0004242423E020700000000243A20202070C2
:1043C0000000000000003C42300C427C0000000075
:1043D000001038101010121C0000000000000242F3
:1043E0004242463B00000000000000242418180050
:1043F000000000000000004A5A5A24240000000077
:1044000000000024181824660000000000000024AA
:1044100024181808102000000000007C0810227EDC
:10442000000002040404040808040404040008084A
:10443000080808080808080808084020202020105C
:10444000102020202000700E00000000000000005E
:104450000000000000000000000001C007701E1CEA
:104460001C1C380E380E380E380E380E380E380E2A
:10447000380E380E1C1C1C1C0E3803E00000000017
:104480000000000000000000000000C001C007C0E4
:1044900001C001C001C001C001C001C001C001C014
:1044A00001C001C001C001C001E00FFC000000001C
:1044B0000000000000000000000003E00E38181C9F
:1044C000380E3C0E3C1E001C0038007000E001C09D
:1044D000030006001C06380E3FFC3FFC00000000F5
:1044E0000000000000000000000007C00C78183C2D
:1044F0003C1C1C1C001C003800F001F0001C001CBF
:10450000000E180E3C0E381C1C3807E0000000009E
:10451000000000000000000000000038007800F8F3
:1045200000F801F8037806780C781C781878307851
:104530007FFF007800780078007803FF000000001B
:104540000000000000000000000000001FFC180038
:104550001800180018001BE01E38181C000E000E72
:10456000000E3C0E3C0E381C1C3807E0000000001A
:104570000000000000000000000001F0071C0C1CFF
:104580001C1C3800380038E03FBC3C1E380E380E8A
:10459000380E380E380E1C0C0E1803F00000000008
:1045A0000000000000000000000000001FFE380CAA
:1045B0003018301800300060006000C001C001C039
:1045C00003800380038003C003C003800000000059
:1045D0000000000000000000000003E00E38380C6E
:1045E000380E380E380E1E1C0FB007F01C78381C21
:1045F000300E700E700E380E1C1C07F0000000000C
:104600000000000000000000000003C00E78381C0D
:10461000381C780E780E780E381E383E1E7E07CE77
:10462000001E001C001C1C381C700FC00000000085
:10463000000000000000000000000000000000007A
:10464000000000000000000000000000000000006A
:104650000000000000001C003E001C0000000000E4
:10466000000000000000000000001C007618671821
:10467000E730E760E76067C066C03F9C01F603670C
:104680000363066306630C671876181C00000000BD
:10469000000000000000000000000000000000001A
:1046A000000000000000000000007FFE000000008D
:1046B00000000000000000000000000000000000FA
:1046C00000000000000000000000000000000000EA
:1046D00000000000000000000000000000000000DA
:1046E00000000000000000000000000000000000CA
:1046F0000000FFFFFFFFFFFF8000000000018000BF
:1047000000000001800000000001800000000001A6
:104710008000000000018001F23FF00180030E18CC
:104720003001800602180801800602180801800680
:1047300000184001800700184001800380184001E4
:104740008001E01FC00180007818400180001C1823
:10475000400180000E18400180000618000180040E
:1047600006180001800406180001800606180001E2
:1047700080070C1800018004F83C00018000000054
:1047800000018000000000018000000000018000A6
:1047900000000001800000000001FFFFFFFFFFFF9D
:1047A000FFFFFFFFFFFFF00000000001E00000003E
:1047B0000001C00000000001800000000001800036
:1047C00000000001800000000001800000000001E6
:1047D000800000000001800000000001803F98EE92
:1047E000F8018024A4442001800442282001800490
:1047F0004228200180044210200180044210200140
:10480000800442102001800424102001800E1838FA
:10481000F80180000000000180000000000180001D
:104820000000000180000000000180000000000185
:1048300080000000000180000000000180000000F6
:104840000001800000000001FFFFFFFFFFFF0000EC
:1048500070480008000000209C000000201700089D
:104860000C4900089C000020344800003017000864
:1048700031323334353637383961626364656630D6
:104880003132330000000000000000000000000092
:104890000000000000000000000000000500000013
:1048A0000000000000000000000000000400000004
:1048B00008101000BC340008080E0E00AC3A0008C6
:1048C000080C0C00DE3F0008101830002C320008E5
:1048D000101020003C3400080E0E1C005C34000850
:1048E0000C0C18008C340008301DAE00F246000895
:1048F000101830005244000800A24A0400000000D2
:0C49000000000000010203040607080983
:0400000508000145A9
:00000001FF
